{
  "contractName": "EHRSupplychain",
  "abi": [
    {
      "anonymous": false,
      "inputs": [
        {
          "indexed": true,
          "internalType": "address",
          "name": "patient",
          "type": "address"
        },
        {
          "indexed": false,
          "internalType": "string",
          "name": "medicationInstanceID",
          "type": "string"
        },
        {
          "indexed": true,
          "internalType": "uint256",
          "name": "batchID",
          "type": "uint256"
        }
      ],
      "name": "HealthRecordUpdated",
      "type": "event"
    },
    {
      "anonymous": false,
      "inputs": [
        {
          "indexed": true,
          "internalType": "uint256",
          "name": "batchID",
          "type": "uint256"
        },
        {
          "indexed": false,
          "internalType": "string",
          "name": "batchInfo",
          "type": "string"
        }
      ],
      "name": "HealthRecordUpdatedWithBatch",
      "type": "event"
    },
    {
      "constant": true,
      "inputs": [
        {
          "internalType": "uint256",
          "name": "",
          "type": "uint256"
        }
      ],
      "name": "accessPolicies",
      "outputs": [
        {
          "internalType": "uint256",
          "name": "accessPolicyID",
          "type": "uint256"
        },
        {
          "internalType": "uint256",
          "name": "patientID",
          "type": "uint256"
        },
        {
          "internalType": "uint256",
          "name": "stakeholderID",
          "type": "uint256"
        },
        {
          "internalType": "string",
          "name": "permissionLevel",
          "type": "string"
        }
      ],
      "payable": false,
      "stateMutability": "view",
      "type": "function"
    },
    {
      "constant": false,
      "inputs": [
        {
          "internalType": "string",
          "name": "batchID",
          "type": "string"
        },
        {
          "internalType": "string",
          "name": "productSpecID",
          "type": "string"
        },
        {
          "internalType": "uint256",
          "name": "manufactureDate",
          "type": "uint256"
        },
        {
          "internalType": "string",
          "name": "lotNumber",
          "type": "string"
        },
        {
          "internalType": "bytes32",
          "name": "ipfsHash",
          "type": "bytes32"
        },
        {
          "internalType": "address",
          "name": "manufacturer",
          "type": "address"
        }
      ],
      "name": "addBatch",
      "outputs": [],
      "payable": false,
      "stateMutability": "nonpayable",
      "type": "function"
    },
    {
      "constant": false,
      "inputs": [
        {
          "internalType": "string",
          "name": "productSpecID",
          "type": "string"
        },
        {
          "internalType": "string",
          "name": "productName",
          "type": "string"
        },
        {
          "internalType": "string",
          "name": "dosageForm",
          "type": "string"
        },
        {
          "internalType": "uint256",
          "name": "strength",
          "type": "uint256"
        }
      ],
      "name": "addProduct",
      "outputs": [],
      "payable": false,
      "stateMutability": "nonpayable",
      "type": "function"
    },
    {
      "constant": true,
      "inputs": [
        {
          "internalType": "string",
          "name": "",
          "type": "string"
        }
      ],
      "name": "batches",
      "outputs": [
        {
          "internalType": "bool",
          "name": "exists",
          "type": "bool"
        },
        {
          "internalType": "string",
          "name": "batchID",
          "type": "string"
        },
        {
          "internalType": "string",
          "name": "productSpecID",
          "type": "string"
        },
        {
          "internalType": "uint256",
          "name": "manufactureDate",
          "type": "uint256"
        },
        {
          "internalType": "string",
          "name": "lotNumber",
          "type": "string"
        },
        {
          "internalType": "bytes32",
          "name": "ipfsHash",
          "type": "bytes32"
        },
        {
          "internalType": "address",
          "name": "manufacturer",
          "type": "address"
        }
      ],
      "payable": false,
      "stateMutability": "view",
      "type": "function"
    },
    {
      "constant": true,
      "inputs": [
        {
          "internalType": "uint256",
          "name": "",
          "type": "uint256"
        }
      ],
      "name": "batches",
      "outputs": [
        {
          "internalType": "bool",
          "name": "exists",
          "type": "bool"
        },
        {
          "internalType": "string",
          "name": "batchID",
          "type": "string"
        },
        {
          "internalType": "string",
          "name": "productSpecID",
          "type": "string"
        },
        {
          "internalType": "uint256",
          "name": "manufactureDate",
          "type": "uint256"
        },
        {
          "internalType": "string",
          "name": "lotNumber",
          "type": "string"
        },
        {
          "internalType": "bytes32",
          "name": "ipfsHash",
          "type": "bytes32"
        },
        {
          "internalType": "address",
          "name": "manufacturer",
          "type": "address"
        }
      ],
      "payable": false,
      "stateMutability": "view",
      "type": "function"
    },
    {
      "constant": true,
      "inputs": [
        {
          "internalType": "uint256",
          "name": "",
          "type": "uint256"
        }
      ],
      "name": "certificates",
      "outputs": [
        {
          "internalType": "uint256",
          "name": "certificateID",
          "type": "uint256"
        },
        {
          "internalType": "uint256",
          "name": "stakeholderID",
          "type": "uint256"
        },
        {
          "internalType": "string",
          "name": "issuedBy",
          "type": "string"
        },
        {
          "internalType": "uint256",
          "name": "validUntil",
          "type": "uint256"
        }
      ],
      "payable": false,
      "stateMutability": "view",
      "type": "function"
    },
    {
      "constant": false,
      "inputs": [
        {
          "internalType": "string",
          "name": "medicationInstanceID",
          "type": "string"
        },
        {
          "internalType": "string",
          "name": "batchID",
          "type": "string"
        },
        {
          "internalType": "address",
          "name": "patient",
          "type": "address"
        },
        {
          "internalType": "uint256",
          "name": "expiryDate",
          "type": "uint256"
        }
      ],
      "name": "dispenseMedication",
      "outputs": [],
      "payable": false,
      "stateMutability": "nonpayable",
      "type": "function"
    },
    {
      "constant": true,
      "inputs": [
        {
          "internalType": "string",
          "name": "batchID",
          "type": "string"
        }
      ],
      "name": "getBatchInfo",
      "outputs": [
        {
          "components": [
            {
              "internalType": "bool",
              "name": "exists",
              "type": "bool"
            },
            {
              "internalType": "string",
              "name": "batchID",
              "type": "string"
            },
            {
              "internalType": "string",
              "name": "productSpecID",
              "type": "string"
            },
            {
              "internalType": "uint256",
              "name": "manufactureDate",
              "type": "uint256"
            },
            {
              "internalType": "string",
              "name": "lotNumber",
              "type": "string"
            },
            {
              "internalType": "bytes32",
              "name": "ipfsHash",
              "type": "bytes32"
            },
            {
              "internalType": "address",
              "name": "manufacturer",
              "type": "address"
            }
          ],
          "internalType": "struct SupplyChain.Batch",
          "name": "",
          "type": "tuple"
        }
      ],
      "payable": false,
      "stateMutability": "view",
      "type": "function"
    },
    {
      "constant": true,
      "inputs": [
        {
          "internalType": "address",
          "name": "",
          "type": "address"
        }
      ],
      "name": "healthRecords",
      "outputs": [
        {
          "internalType": "string",
          "name": "data",
          "type": "string"
        },
        {
          "internalType": "address",
          "name": "patientPublicKey",
          "type": "address"
        },
        {
          "internalType": "address",
          "name": "doctorPublicKey",
          "type": "address"
        },
        {
          "internalType": "bool",
          "name": "encrypted",
          "type": "bool"
        }
      ],
      "payable": false,
      "stateMutability": "view",
      "type": "function"
    },
    {
      "constant": true,
      "inputs": [
        {
          "internalType": "uint256",
          "name": "",
          "type": "uint256"
        }
      ],
      "name": "medicalRecords",
      "outputs": [
        {
          "internalType": "uint256",
          "name": "medicalRecordID",
          "type": "uint256"
        },
        {
          "internalType": "string",
          "name": "data",
          "type": "string"
        },
        {
          "internalType": "uint256",
          "name": "hash",
          "type": "uint256"
        }
      ],
      "payable": false,
      "stateMutability": "view",
      "type": "function"
    },
    {
      "constant": true,
      "inputs": [
        {
          "internalType": "string",
          "name": "",
          "type": "string"
        }
      ],
      "name": "medicationInstances",
      "outputs": [
        {
          "internalType": "bool",
          "name": "exists",
          "type": "bool"
        },
        {
          "internalType": "string",
          "name": "medicationInstanceID",
          "type": "string"
        },
        {
          "internalType": "string",
          "name": "batchID",
          "type": "string"
        },
        {
          "internalType": "address",
          "name": "patient",
          "type": "address"
        },
        {
          "internalType": "uint256",
          "name": "expiryDate",
          "type": "uint256"
        },
        {
          "internalType": "bool",
          "name": "dispensed",
          "type": "bool"
        }
      ],
      "payable": false,
      "stateMutability": "view",
      "type": "function"
    },
    {
      "constant": true,
      "inputs": [
        {
          "internalType": "address",
          "name": "",
          "type": "address"
        }
      ],
      "name": "patients",
      "outputs": [
        {
          "internalType": "uint256",
          "name": "patientID",
          "type": "uint256"
        },
        {
          "internalType": "string",
          "name": "name",
          "type": "string"
        },
        {
          "internalType": "uint256",
          "name": "dateOfBirth",
          "type": "uint256"
        },
        {
          "internalType": "uint256",
          "name": "medicalHistoryID",
          "type": "uint256"
        },
        {
          "internalType": "bool",
          "name": "exists",
          "type": "bool"
        }
      ],
      "payable": false,
      "stateMutability": "view",
      "type": "function"
    },
    {
      "constant": true,
      "inputs": [
        {
          "internalType": "string",
          "name": "",
          "type": "string"
        }
      ],
      "name": "products",
      "outputs": [
        {
          "internalType": "bool",
          "name": "exists",
          "type": "bool"
        },
        {
          "internalType": "string",
          "name": "productSpecID",
          "type": "string"
        },
        {
          "internalType": "string",
          "name": "productName",
          "type": "string"
        },
        {
          "internalType": "string",
          "name": "dosageForm",
          "type": "string"
        },
        {
          "internalType": "uint256",
          "name": "strength",
          "type": "uint256"
        }
      ],
      "payable": false,
      "stateMutability": "view",
      "type": "function"
    },
    {
      "constant": true,
      "inputs": [
        {
          "internalType": "address",
          "name": "",
          "type": "address"
        }
      ],
      "name": "stakeholders",
      "outputs": [
        {
          "internalType": "uint256",
          "name": "stakeholderID",
          "type": "uint256"
        },
        {
          "internalType": "string",
          "name": "name",
          "type": "string"
        },
        {
          "internalType": "string",
          "name": "stakeholderType",
          "type": "string"
        }
      ],
      "payable": false,
      "stateMutability": "view",
      "type": "function"
    },
    {
      "constant": false,
      "inputs": [
        {
          "internalType": "address",
          "name": "patient",
          "type": "address"
        },
        {
          "internalType": "string",
          "name": "medicationInstanceID",
          "type": "string"
        },
        {
          "internalType": "uint256",
          "name": "batchID",
          "type": "uint256"
        }
      ],
      "name": "linkHealthRecordToMedication",
      "outputs": [],
      "payable": false,
      "stateMutability": "nonpayable",
      "type": "function"
    },
    {
      "constant": true,
      "inputs": [
        {
          "internalType": "address",
          "name": "patient",
          "type": "address"
        }
      ],
      "name": "getMedicationHistory",
      "outputs": [
        {
          "internalType": "uint256[]",
          "name": "",
          "type": "uint256[]"
        }
      ],
      "payable": false,
      "stateMutability": "view",
      "type": "function"
    },
    {
      "constant": false,
      "inputs": [
        {
          "internalType": "address",
          "name": "patient",
          "type": "address"
        },
        {
          "internalType": "uint256",
          "name": "batchID",
          "type": "uint256"
        },
        {
          "internalType": "string",
          "name": "batchInfo",
          "type": "string"
        }
      ],
      "name": "updateHealthRecordWithBatchInfo",
      "outputs": [],
      "payable": false,
      "stateMutability": "nonpayable",
      "type": "function"
    },
    {
      "constant": true,
      "inputs": [
        {
          "internalType": "string",
          "name": "medicationInstanceID",
          "type": "string"
        }
      ],
      "name": "verifyMedicationOrigin",
      "outputs": [
        {
          "components": [
            {
              "internalType": "bool",
              "name": "exists",
              "type": "bool"
            },
            {
              "internalType": "string",
              "name": "batchID",
              "type": "string"
            },
            {
              "internalType": "string",
              "name": "productSpecID",
              "type": "string"
            },
            {
              "internalType": "uint256",
              "name": "manufactureDate",
              "type": "uint256"
            },
            {
              "internalType": "string",
              "name": "lotNumber",
              "type": "string"
            },
            {
              "internalType": "bytes32",
              "name": "ipfsHash",
              "type": "bytes32"
            },
            {
              "internalType": "address",
              "name": "manufacturer",
              "type": "address"
            }
          ],
          "internalType": "struct SupplyChain.Batch",
          "name": "",
          "type": "tuple"
        }
      ],
      "payable": false,
      "stateMutability": "view",
      "type": "function"
    },
    {
      "constant": false,
      "inputs": [
        {
          "internalType": "address",
          "name": "patient",
          "type": "address"
        },
        {
          "internalType": "string",
          "name": "medicationInstanceID",
          "type": "string"
        },
        {
          "internalType": "uint256",
          "name": "batchID",
          "type": "uint256"
        }
      ],
      "name": "updateHealthRecord",
      "outputs": [],
      "payable": false,
      "stateMutability": "nonpayable",
      "type": "function"
    },
    {
      "constant": false,
      "inputs": [
        {
          "internalType": "address",
          "name": "patient",
          "type": "address"
        },
        {
          "internalType": "uint256",
          "name": "batchID",
          "type": "uint256"
        },
        {
          "internalType": "string",
          "name": "batchInfo",
          "type": "string"
        }
      ],
      "name": "updateHealthRecordWithBatch",
      "outputs": [],
      "payable": false,
      "stateMutability": "nonpayable",
      "type": "function"
    }
  ],
  "bytecode": "0x608060405234801561001057600080fd5b506122b6806100206000396000f3fe608060405234801561001057600080fd5b506004361061012c5760003560e01c80638165fed5116100ad578063c07cfca911610071578063c07cfca9146102dc578063c581b45f146102fe578063c889d1ac14610311578063d1cfe0d914610331578063d54d5b92146103545761012c565b80638165fed514610270578063819418d814610283578063a8abc03714610296578063b32c4d8d146102b6578063beda8311146102c95761012c565b8063434e19cf116100f4578063434e19cf146101df578063663b3e22146101f25780637564a13c146102155780637ef1446a146102375780637f8fa3de1461025d5761012c565b80630186a423146101315780630869cfbc1461015e5780631072a0fa1461018257806311cf8d85146101a75780631d0b9fc0146101ca575b600080fd5b61014461013f366004611a01565b610367565b604051610155959493929190611ef7565b60405180910390f35b61017161016c36600461191d565b610548565b6040516101559594939291906120cd565b610195610190366004611a01565b610606565b60405161015596959493929190611e8f565b6101ba6101b536600461191d565b610770565b6040516101559493929190611fe6565b6101dd6101d8366004611b4b565b610836565b005b6101dd6101ed366004611a35565b61093a565b610205610200366004611c16565b610b14565b6040516101559493929190612116565b610228610223366004611c16565b610bc3565b6040516101559392919061209e565b61024a610245366004611a01565b610c70565b6040516101559796959493929190611f58565b6101dd61026b3660046119a7565b610e69565b6101dd61027e366004611ac3565b610ee2565b6101dd6102913660046119a7565b610fa0565b6102a96102a4366004611a01565b610fab565b6040516101559190612059565b61024a6102c4366004611c16565b6110ae565b6101dd6102d7366004611943565b611127565b6102ef6102ea36600461191d565b6111da565b6040516101559392919061206a565b6101dd61030c366004611943565b611313565b61032461031f36600461191d565b61131e565b6040516101559190611e7e565b61034461033f366004611c16565b6113c9565b6040516101559493929190612152565b6102a9610362366004611a01565b611491565b805160208183018101805160008252928201938201939093209190925280546001808301805460408051600261010095841615959095026000190190921693909304601f810187900487028201870190935282815260ff909316949091908301828280156104165780601f106103eb57610100808354040283529160200191610416565b820191906000526020600020905b8154815290600101906020018083116103f957829003601f168201915b50505060028085018054604080516020601f60001961010060018716150201909416959095049283018590048502810185019091528181529596959450909250908301828280156104a85780601f1061047d576101008083540402835291602001916104a8565b820191906000526020600020905b81548152906001019060200180831161048b57829003601f168201915b5050505060038301805460408051602060026001851615610100026000190190941693909304601f81018490048402820184019092528181529495949350908301828280156105385780601f1061050d57610100808354040283529160200191610538565b820191906000526020600020905b81548152906001019060200180831161051b57829003601f168201915b5050505050908060040154905085565b6003602090815260009182526040918290208054600180830180548651600293821615610100026000190190911692909204601f8101869004860283018601909652858252919492939092908301828280156105e55780601f106105ba576101008083540402835291602001916105e5565b820191906000526020600020905b8154815290600101906020018083116105c857829003601f168201915b50505050600283015460038401546004909401549293909290915060ff1685565b80516020818301810180516002808352938301948301949094209390528254600180850180546040805161010094831615949094026000190190911695909504601f810185900485028301850190955284825260ff909216949390928301828280156106b35780601f10610688576101008083540402835291602001916106b3565b820191906000526020600020905b81548152906001019060200180831161069657829003601f168201915b50505060028085018054604080516020601f60001961010060018716150201909416959095049283018590048502810185019091528181529596959450909250908301828280156107455780601f1061071a57610100808354040283529160200191610745565b820191906000526020600020905b81548152906001019060200180831161072857829003601f168201915b505050506003830154600484015460059094015492936001600160a01b039091169290915060ff1686565b60086020908152600091825260409182902080548351601f600260001961010060018616150201909316929092049182018490048402810184019094528084529092918391908301828280156108075780601f106107dc57610100808354040283529160200191610807565b820191906000526020600020905b8154815290600101906020018083116107ea57829003601f168201915b50505050600183015460029093015491926001600160a01b03908116929081169150600160a01b900460ff1684565b6040518060e00160405280600115158152602001878152602001868152602001858152602001848152602001838152602001826001600160a01b03168152506001876040516108859190611e72565b908152604051602091819003820190208251815460ff191690151517815582820151805191926108bd92600185019290910190611742565b50604082015180516108d9916002840191602090910190611742565b5060608201516003820155608082015180516108ff916004840191602090910190611742565b5060a0820151600582015560c090910151600690910180546001600160a01b0319166001600160a01b03909216919091179055505050505050565b60018360405161094a9190611e72565b9081526040519081900360200190205460ff166109825760405162461bcd60e51b815260040161097990612029565b60405180910390fd5b604080516001808252818301909252606091602080830190803883390190505090506001846040516109b49190611e72565b9081526040519081900360200190206006015481516001600160a01b039091169082906000906109e057fe5b60200260200101906001600160a01b031690816001600160a01b0316815250506040518060e00160405280600115158152602001868152602001858152602001846001600160a01b0316815260200183815260200160011515815260200182815250600286604051610a529190611e72565b908152604051602091819003820190208251815460ff19169015151781558282015180519192610a8a92600185019290910190611742565b5060408201518051610aa6916002840191602090910190611742565b5060608201516003820180546001600160a01b0319166001600160a01b039092169190911790556080820151600482015560a082015160058201805460ff191691151591909117905560c08201518051610b0a9160068401916020909101906117c0565b5050505050505050565b60076020908152600091825260409182902080546001808301546002808501805488519481161561010002600019011691909104601f810187900487028401870190975286835292959094919291830182828015610bb35780601f10610b8857610100808354040283529160200191610bb3565b820191906000526020600020905b815481529060010190602001808311610b9657829003601f168201915b5050505050908060030154905084565b6004602090815260009182526040918290208054600180830180548651600293821615610100026000190190911692909204601f810186900486028301860190965285825291949293909290830182828015610c605780601f10610c3557610100808354040283529160200191610c60565b820191906000526020600020905b815481529060010190602001808311610c4357829003601f168201915b5050505050908060020154905083565b8051808201602090810180516001808352938301948301949094209390528254838301805460408051601f600260001998851615610100029890980190931696909604918201859004850286018501905280855260ff909216949392909190830182828015610d205780601f10610cf557610100808354040283529160200191610d20565b820191906000526020600020905b815481529060010190602001808311610d0357829003601f168201915b50505060028085018054604080516020601f6000196101006001871615020190941695909504928301859004850281018501909152818152959695945090925090830182828015610db25780601f10610d8757610100808354040283529160200191610db2565b820191906000526020600020905b815481529060010190602001808311610d9557829003601f168201915b50505050600383015460048401805460408051602060026001851615610100026000190190941693909304601f81018490048402820184019092528181529596939593945090830182828015610e495780601f10610e1e57610100808354040283529160200191610e49565b820191906000526020600020905b815481529060010190602001808311610e2c57829003601f168201915b5050505060058301546006909301549192916001600160a01b0316905087565b6001600160a01b03831660009081526003602052604090206004015460ff16610ea45760405162461bcd60e51b815260040161097990612049565b60008281526009602052604090205460ff16610ed25760405162461bcd60e51b815260040161097990612029565b610edd838383610fa0565b505050565b6040518060a0016040528060011515815260200185815260200184815260200183815260200182815250600085604051610f1c9190611e72565b908152604051602091819003820190208251815460ff19169015151781558282015180519192610f5492600185019290910190611742565b5060408201518051610f70916002840191602090910190611742565b5060608201518051610f8c916003840191602090910190611742565b506080820151816004015590505050505050565b610edd8383836116be565b610fb3611821565b600282604051610fc39190611e72565b9081526040519081900360200190205460ff16610ff25760405162461bcd60e51b815260040161097990612039565b60606002836040516110049190611e72565b90815260408051918290036020908101832060029081018054601f6000196101006001841615020190911692909204918201839004830285018301909352808452908301828280156110975780601f1061106c57610100808354040283529160200191611097565b820191906000526020600020905b81548152906001019060200180831161107a57829003601f168201915b505050505090506110a781611491565b9392505050565b6009602090815260009182526040918290208054600180830180548651600261010094831615949094026000190190911692909204601f810186900486028301860190965285825260ff909216949293909290830182828015610d205780601f10610cf557610100808354040283529160200191610d20565b6001600160a01b03831660009081526003602052604090206004015460ff166111625760405162461bcd60e51b815260040161097990612049565b6002826040516111729190611e72565b9081526040519081900360200190205460ff166111a15760405162461bcd60e51b815260040161097990612039565b60008181526009602052604090205460ff166111cf5760405162461bcd60e51b815260040161097990612029565b610edd838383611313565b6005602090815260009182526040918290208054600180830180548651600293821615610100026000190190911692909204601f8101869004860283018601909652858252919492939092908301828280156112775780601f1061124c57610100808354040283529160200191611277565b820191906000526020600020905b81548152906001019060200180831161125a57829003601f168201915b50505060028085018054604080516020601f60001961010060018716150201909416959095049283018590048502810185019091528181529596959450909250908301828280156113095780601f106112de57610100808354040283529160200191611309565b820191906000526020600020905b8154815290600101906020018083116112ec57829003601f168201915b5050505050905083565b610edd8383836116fb565b6001600160a01b03811660009081526003602052604090206004015460609060ff1661135c5760405162461bcd60e51b815260040161097990612049565b6001600160a01b038216600090815260036020908152604091829020600501805483518184028101840190945280845290918301828280156113bd57602002820191906000526020600020905b8154815260200190600101908083116113a9575b50505050509050919050565b6006602052806000526040600020600091509050806000015490806001015490806002015490806003018054600181600116156101000203166002900480601f0160208091040260200160405190810160405280929190818152602001828054600181600116156101000203166002900480156114875780601f1061145c57610100808354040283529160200191611487565b820191906000526020600020905b81548152906001019060200180831161146a57829003601f168201915b5050505050905084565b611499611821565b6114a1611821565b6001836040516114b19190611e72565b908152604080516020928190038301812060e082018352805460ff1615158252600180820180548551600261010094831615949094026000190190911692909204601f8101879004870283018701909552848252929491938286019391928301828280156115605780601f1061153557610100808354040283529160200191611560565b820191906000526020600020905b81548152906001019060200180831161154357829003601f168201915b5050509183525050600282810180546040805160206001841615610100026000190190931694909404601f810183900483028501830190915280845293810193908301828280156115f25780601f106115c7576101008083540402835291602001916115f2565b820191906000526020600020905b8154815290600101906020018083116115d557829003601f168201915b5050509183525050600382015460208083019190915260048301805460408051601f600260001961010060018716150201909416939093049283018590048502810185018252828152940193928301828280156116905780601f1061166557610100808354040283529160200191611690565b820191906000526020600020905b81548152906001019060200180831161167357829003601f168201915b5050509183525050600582015460208201526006909101546001600160a01b03166040909101529392505050565b817fa8294b517cfb49e3b0c07d91085292fc5e0c8e2ff62edb665056ee341f5ff345826040516116ee9190611fd5565b60405180910390a2505050565b80836001600160a01b03167f5c2b5d6645d201d29b6da912156d4b230ad8c622967aa75bd74d5e86308236d8846040516117359190611fd5565b60405180910390a3505050565b828054600181600116156101000203166002900490600052602060002090601f016020900481019282601f1061178357805160ff19168380011785556117b0565b828001600101855582156117b0579182015b828111156117b0578251825591602001919060010190611795565b506117bc92915061186c565b5090565b828054828255906000526020600020908101928215611815579160200282015b8281111561181557825182546001600160a01b0319166001600160a01b039091161782556020909201916001909101906117e0565b506117bc929150611889565b6040518060e00160405280600015158152602001606081526020016060815260200160008152602001606081526020016000801916815260200160006001600160a01b031681525090565b61188691905b808211156117bc5760008155600101611872565b90565b61188691905b808211156117bc5780546001600160a01b031916815560010161188f565b80356118b881612253565b92915050565b80356118b88161226a565b600082601f8301126118da57600080fd5b81356118ed6118e8826121b2565b61218c565b9150808252602083016020830185838301111561190957600080fd5b61191483828461220d565b50505092915050565b60006020828403121561192f57600080fd5b600061193b84846118ad565b949350505050565b60008060006060848603121561195857600080fd5b600061196486866118ad565b93505060208401356001600160401b0381111561198057600080fd5b61198c868287016118c9565b925050604061199d868287016118be565b9150509250925092565b6000806000606084860312156119bc57600080fd5b60006119c886866118ad565b93505060206119d9868287016118be565b92505060408401356001600160401b038111156119f557600080fd5b61199d868287016118c9565b600060208284031215611a1357600080fd5b81356001600160401b03811115611a2957600080fd5b61193b848285016118c9565b60008060008060808587031215611a4b57600080fd5b84356001600160401b03811115611a6157600080fd5b611a6d878288016118c9565b94505060208501356001600160401b03811115611a8957600080fd5b611a95878288016118c9565b9350506040611aa6878288016118ad565b9250506060611ab7878288016118be565b91505092959194509250565b60008060008060808587031215611ad957600080fd5b84356001600160401b03811115611aef57600080fd5b611afb878288016118c9565b94505060208501356001600160401b03811115611b1757600080fd5b611b23878288016118c9565b93505060408501356001600160401b03811115611b3f57600080fd5b611aa6878288016118c9565b60008060008060008060c08789031215611b6457600080fd5b86356001600160401b03811115611b7a57600080fd5b611b8689828a016118c9565b96505060208701356001600160401b03811115611ba257600080fd5b611bae89828a016118c9565b9550506040611bbf89828a016118be565b94505060608701356001600160401b03811115611bdb57600080fd5b611be789828a016118c9565b9350506080611bf889828a016118be565b92505060a0611c0989828a016118ad565b9150509295509295509295565b600060208284031215611c2857600080fd5b600061193b84846118be565b6000611c408383611cb9565b505060200190565b611c51816121f1565b82525050565b6000611c62826121df565b611c6c81856121e3565b9350611c77836121d9565b8060005b83811015611ca5578151611c8f8882611c34565b9750611c9a836121d9565b925050600101611c7b565b509495945050505050565b611c51816121fc565b611c5181611886565b6000611ccd826121df565b611cd781856121e3565b9350611ce7818560208601612219565b611cf081612249565b9093019392505050565b6000611d05826121df565b611d0f81856121ec565b9350611d1f818560208601612219565b9290920192915050565b6000611d366014836121e3565b7310985d18da08191bd95cc81b9bdd08195e1a5cdd60621b815260200192915050565b6000611d666022836121e3565b7f4d656469636174696f6e20696e7374616e636520646f6573206e6f74206578698152611cdd60f21b602082015260400192915050565b6000611daa6016836121e3565b7514185d1a595b9d08191bd95cc81b9bdd08195e1a5cdd60521b815260200192915050565b805160009060e0840190611de38582611cb0565b5060208301518482036020860152611dfb8282611cc2565b91505060408301518482036040860152611e158282611cc2565b9150506060830151611e2a6060860182611cb9565b5060808301518482036080860152611e428282611cc2565b91505060a0830151611e5760a0860182611cb9565b5060c0830151611e6a60c0860182611c48565b509392505050565b60006110a78284611cfa565b602080825281016110a78184611c57565b60c08101611e9d8289611cb0565b8181036020830152611eaf8188611cc2565b90508181036040830152611ec38187611cc2565b9050611ed26060830186611c48565b611edf6080830185611cb9565b611eec60a0830184611cb0565b979650505050505050565b60a08101611f058288611cb0565b8181036020830152611f178187611cc2565b90508181036040830152611f2b8186611cc2565b90508181036060830152611f3f8185611cc2565b9050611f4e6080830184611cb9565b9695505050505050565b60e08101611f66828a611cb0565b8181036020830152611f788189611cc2565b90508181036040830152611f8c8188611cc2565b9050611f9b6060830187611cb9565b8181036080830152611fad8186611cc2565b9050611fbc60a0830185611cb9565b611fc960c0830184611c48565b98975050505050505050565b602080825281016110a78184611cc2565b60808082528101611ff78187611cc2565b90506120066020830186611c48565b6120136040830185611c48565b6120206060830184611cb0565b95945050505050565b602080825281016118b881611d29565b602080825281016118b881611d59565b602080825281016118b881611d9d565b602080825281016110a78184611dcf565b606081016120788286611cb9565b818103602083015261208a8185611cc2565b905081810360408301526120208184611cc2565b606081016120ac8286611cb9565b81810360208301526120be8185611cc2565b905061193b6040830184611cb9565b60a081016120db8288611cb9565b81810360208301526120ed8187611cc2565b90506120fc6040830186611cb9565b6121096060830185611cb9565b611f4e6080830184611cb0565b608081016121248287611cb9565b6121316020830186611cb9565b81810360408301526121438185611cc2565b90506120206060830184611cb9565b608081016121608287611cb9565b61216d6020830186611cb9565b61217a6040830185611cb9565b8181036060830152611f4e8184611cc2565b6040518181016001600160401b03811182821017156121aa57600080fd5b604052919050565b60006001600160401b038211156121c857600080fd5b506020601f91909101601f19160190565b60200190565b5190565b90815260200190565b919050565b60006118b882612201565b151590565b6001600160a01b031690565b82818337506000910152565b60005b8381101561223457818101518382015260200161221c565b83811115612243576000848401525b50505050565b601f01601f191690565b61225c816121f1565b811461226757600080fd5b50565b61225c8161188656fea365627a7a72315820c55de047433c89b23fe0aab5e34e17904bb064f2e933dcf135616e86ff3872506c6578706572696d656e74616cf564736f6c63430005100040",
  "source": "// SPDX-License-Identifier: MIT \npragma solidity >=0.4.22 <0.9.0;\npragma experimental ABIEncoderV2;\n\nimport \"./HealthRecordSystem.sol\";\n\ncontract EHRSupplychain is HealthRecordSystem {\n\n    mapping(uint256 => Batch) public batches;\n    \n    // function getBatchInfo(uint256 _batchID) public view returns (Batch memory) {\n    //     return batches[_batchID];\n    // }\n    \n    // Function to link a patient's health record to medication dispensation\n    function linkHealthRecordToMedication(address patient, string memory medicationInstanceID, uint256 batchID) public {\n        require(patients[patient].exists, \"Patient does not exist\");\n        require(medicationInstances[medicationInstanceID].exists, \"Medication instance does not exist\");\n        require(batches[batchID].exists, \"Batch does not exist\");\n\n        // Update health record with medication dispensation information\n        updateHealthRecord(patient, medicationInstanceID, batchID);\n    }\n    \n    // Function to retrieve medication history of a patient\n    function getMedicationHistory(address patient) public view returns (uint[] memory) {\n        require(patients[patient].exists, \"Patient does not exist\");\n        \n        return patients[patient].medicationHistory;\n    }\n    \n    // Function to update health record with batch information\n    function updateHealthRecordWithBatchInfo(address patient, uint256 batchID, string memory batchInfo) public {\n        require(patients[patient].exists, \"Patient does not exist\");\n        require(batches[batchID].exists, \"Batch does not exist\");\n        \n        // Update health record with batch information\n        updateHealthRecordWithBatch(patient, batchID, batchInfo);\n    }\n    \n    // Function to verify medication origin\n    function verifyMedicationOrigin(string memory medicationInstanceID) public view returns (Batch memory) {\n        require(medicationInstances[medicationInstanceID].exists, \"Medication instance does not exist\");\n        \n        string memory batchID = medicationInstances[medicationInstanceID].batchID;\n        return getBatchInfo(batchID);\n    }\n    \n    // Function to update health record with medication dispensation information\n    function updateHealthRecord(address patient, string memory medicationInstanceID, uint256 batchID) public {\n        // Call the internal function from Contract 2 (HealthRecordSystem)\n        super.updateHealthRecord(patient, medicationInstanceID, batchID);\n    }\n    \n    // Function to update health record with batch information\n    function updateHealthRecordWithBatch(address patient, uint256 batchID, string memory batchInfo) public {\n        // Call the internal function from Contract 2 (HealthRecordSystem)\n        super.updateHealthRecordWithBatch(patient, batchID, batchInfo);\n    }\n}\n",
  "sourcePath": "/Users/abhishek/Documents/College/Projects/Bridge/contracts/EHRSupplychain.sol",
  "compiler": {
    "name": "solc",
    "version": "0.5.16+commit.9c3226ce.Emscripten.clang"
  },
  "schemaVersion": "3.4.16",
  "updatedAt": "2024-04-28T21:17:50.212Z",
  "devdoc": {
    "methods": {}
  },
  "userdoc": {
    "methods": {}
  }
}