{
  "contractName": "HealthRecordSystem",
  "abi": [
    {
      "constant": true,
      "inputs": [
        {
          "internalType": "address",
          "name": "",
          "type": "address"
        }
      ],
      "name": "healthRecords",
      "outputs": [
        {
          "internalType": "string",
          "name": "data",
          "type": "string"
        },
        {
          "internalType": "address",
          "name": "patientPublicKey",
          "type": "address"
        },
        {
          "internalType": "address",
          "name": "doctorPublicKey",
          "type": "address"
        },
        {
          "internalType": "bool",
          "name": "encrypted",
          "type": "bool"
        }
      ],
      "payable": false,
      "stateMutability": "view",
      "type": "function"
    },
    {
      "constant": false,
      "inputs": [
        {
          "internalType": "address",
          "name": "doctor",
          "type": "address"
        },
        {
          "internalType": "address",
          "name": "patient",
          "type": "address"
        },
        {
          "internalType": "string",
          "name": "data",
          "type": "string"
        },
        {
          "internalType": "bool",
          "name": "permissionGrant",
          "type": "bool"
        },
        {
          "internalType": "string",
          "name": "role",
          "type": "string"
        }
      ],
      "name": "createUpdateHealthRecord",
      "outputs": [
        {
          "internalType": "bool",
          "name": "",
          "type": "bool"
        }
      ],
      "payable": false,
      "stateMutability": "nonpayable",
      "type": "function"
    },
    {
      "constant": false,
      "inputs": [
        {
          "internalType": "address",
          "name": "patient",
          "type": "address"
        },
        {
          "internalType": "address",
          "name": "doctor",
          "type": "address"
        },
        {
          "internalType": "string",
          "name": "doctorPublicKey",
          "type": "string"
        },
        {
          "internalType": "bytes32",
          "name": "sessionKey",
          "type": "bytes32"
        },
        {
          "internalType": "string",
          "name": "encryptedData",
          "type": "string"
        }
      ],
      "name": "create_Update_HR",
      "outputs": [],
      "payable": false,
      "stateMutability": "nonpayable",
      "type": "function"
    }
  ],
  "bytecode": "0x608060405234801561001057600080fd5b506106c2806100206000396000f3fe608060405234801561001057600080fd5b50600436106100415760003560e01c806308c0f31c1461004657806311cf8d85146101a6578063c88432af14610281575b600080fd5b610192600480360360a081101561005c57600080fd5b6001600160a01b038235811692602081013590911691810190606081016040820135600160201b81111561008f57600080fd5b8201836020820111156100a157600080fd5b803590602001918460018302840111600160201b831117156100c257600080fd5b91908080601f016020809104026020016040519081016040528093929190818152602001838380828437600092019190915250929584351515959094909350604081019250602001359050600160201b81111561011e57600080fd5b82018360208201111561013057600080fd5b803590602001918460018302840111600160201b8311171561015157600080fd5b91908080601f0160208091040260200160405190810160405280939291908181526020018383808284376000920191909152509295506103cd945050505050565b604080519115158252519081900360200190f35b6101cc600480360360208110156101bc57600080fd5b50356001600160a01b03166104c4565b6040518080602001856001600160a01b03166001600160a01b03168152602001846001600160a01b03166001600160a01b0316815260200183151515158152602001828103825286818151815260200191508051906020019080838360005b8381101561024357818101518382015260200161022b565b50505050905090810190601f1680156102705780820380516001836020036101000a031916815260200191505b509550505050505060405180910390f35b6103cb600480360360a081101561029757600080fd5b6001600160a01b038235811692602081013590911691810190606081016040820135600160201b8111156102ca57600080fd5b8201836020820111156102dc57600080fd5b803590602001918460018302840111600160201b831117156102fd57600080fd5b91908080601f01602080910402602001604051908101604052809392919081815260200183838082843760009201919091525092958435959094909350604081019250602001359050600160201b81111561035757600080fd5b82018360208201111561036957600080fd5b803590602001918460018302840111600160201b8311171561038a57600080fd5b91908080601f016020809104026020016040519081016040528093929190818152602001838380828437600092019190915250929550610587945050505050565b005b600082801561047757506040516020018080652237b1ba37b960d11b815250600601905060405160208183030381529060405280519060200120826040516020018082805190602001908083835b6020831061043a5780518252601f19909201916020918201910161041b565b6001836020036101000a03801982511681845116808217855250505050505090500191505060405160208183030381529060405280519060200120145b156104b7576060610487856105d3565b905060006104936105d6565b90506104a187898484610602565b6104ab8783610608565b506001925050506104bb565b5060005b95945050505050565b6000602081815291815260409081902080548251601f6002600019610100600186161502019093169290920491820185900485028101850190935280835290928391908301828280156105585780601f1061052d57610100808354040283529160200191610558565b820191906000526020600020905b81548152906001019060200180831161053b57829003601f168201915b50505050600183015460029093015491926001600160a01b03908116929081169150600160a01b900460ff1684565b6060610593848461060d565b905060606105a1838561060d565b905060606105af8883610608565b905060606105bc826105d3565b90506105c781610611565b50505050505050505050565b90565b604080514260208083019190915244828401528251808303840181526060909201909252805191012090565b50505050565b919050565b5090565b600080826040516020018082805190602001908083835b602083106106475780518252601f199092019160209182019101610628565b6001836020036101000a0380198251168184511680821785525050505050509050019150506040516020818303038152906040528051906020012090508091505091905056fea265627a7a7231582011a6e5c1c826916dbb4a6142bba9d05ae4d67da2a8b57c738a773d26150122fe64736f6c63430005100032",
  "source": "// SPDX-License-Identifier: MIT\npragma solidity >=0.4.22 <0.9.0;\n\ncontract HealthRecordSystem {\n    struct HealthRecord {\n        string data;\n        address patientPublicKey;\n        address doctorPublicKey;\n        bool encrypted;\n    }\n\n    mapping(address => HealthRecord) public healthRecords;\n\n    function createUpdateHealthRecord(\n        address doctor,\n        address patient,\n        string memory data,\n        bool permissionGrant,\n        string memory role\n    ) public returns (bool) {\n        if (permissionGrant && keccak256(abi.encodePacked(role)) == keccak256(abi.encodePacked(\"Doctor\"))) {\n            // Create Pacenvn for HRn in IPFS\n            string memory encryptedData = encryptData(data);\n            \n            // Create session key Sk\n            bytes32 sessionKey = generateSessionKey();\n            \n            // Send encrypted data to patient and doctor\n            sendEncryptedData(patient, doctor, encryptedData, sessionKey);\n            \n            // Update health record\n            updateHealthRecord(patient, encryptedData);\n            \n            return true;\n        } else {\n            return false;\n        }\n    }\n    \n    function create_Update_HR(\n        address patient,\n        address doctor,\n        string memory doctorPublicKey,\n        bytes32 sessionKey,\n        string memory encryptedData\n    ) public {\n        // Decrypt doctor's public key using session key\n        string memory decryptedDoctorKey = decrypt(doctorPublicKey, sessionKey);\n        \n        // Decrypt encrypted data using session key\n        string memory decryptedData = decrypt(encryptedData, sessionKey);\n        \n        // Perform update operation on health record\n        string memory updatedData = updateHealthRecord(patient, decryptedData);\n        \n        // Encrypt updated data using session key\n        string memory encryptedUpdatedData = encryptData(updatedData);\n        \n        // Store encrypted updated data in IPFS\n        storeInIPFS(encryptedUpdatedData);\n    }\n    \n    function encryptData(string memory data) private pure returns (string memory) {\n        // Perform encryption algorithm\n        // For simplicity, let's assume it's a basic encryption algorithm\n        return data;\n    }\n    \n    function decrypt(string memory encryptedData, bytes32 sessionKey) private pure returns (string memory) {\n        // Perform decryption using session key\n        // For simplicity, let's assume it's a basic decryption algorithm\n        return encryptedData;\n    }\n    \n    function generateSessionKey() private view returns (bytes32) {\n        // Generate session key using a cryptographic function\n        // For simplicity, let's assume it's a random generation\n        return keccak256(abi.encodePacked(block.timestamp, block.difficulty));\n    }\n    \n    function sendEncryptedData(address patient, address doctor, string memory encryptedData, bytes32 sessionKey) private {\n        // Send encrypted data to patient and doctor\n        // Implementation details omitted for simplicity\n    }\n    \n    function updateHealthRecord(address patient, string memory data) private pure returns (string memory) {\n        // Perform update operation on health record\n        // For simplicity, let's assume it's a basic update operation\n        return data;\n    }\n    \n    function storeInIPFS(string memory data) private pure returns (bytes32) {\n        // Simulate storing data in IPFS by returning a hash of the data\n        bytes32 ipfsHash = keccak256(abi.encodePacked(data));\n        return ipfsHash;\n    }\n}\n",
  "sourcePath": "/Users/abhishek/Documents/College/Projects/Bridge/contracts/HealthRecordSystem.sol",
  "compiler": {
    "name": "solc",
    "version": "0.5.16+commit.9c3226ce.Emscripten.clang"
  },
  "schemaVersion": "3.4.16",
  "updatedAt": "2024-04-25T04:09:15.338Z",
  "networkType": "ethereum",
  "devdoc": {
    "methods": {}
  },
  "userdoc": {
    "methods": {}
  }
}