{
  "contractName": "HealthRecordSystem",
  "abi": [
    {
      "anonymous": false,
      "inputs": [
        {
          "indexed": true,
          "internalType": "address",
          "name": "patient",
          "type": "address"
        },
        {
          "indexed": false,
          "internalType": "string",
          "name": "medicationInstanceID",
          "type": "string"
        },
        {
          "indexed": true,
          "internalType": "uint256",
          "name": "batchID",
          "type": "uint256"
        }
      ],
      "name": "HealthRecordUpdated",
      "type": "event"
    },
    {
      "anonymous": false,
      "inputs": [
        {
          "indexed": true,
          "internalType": "uint256",
          "name": "batchID",
          "type": "uint256"
        },
        {
          "indexed": false,
          "internalType": "string",
          "name": "batchInfo",
          "type": "string"
        }
      ],
      "name": "HealthRecordUpdatedWithBatch",
      "type": "event"
    },
    {
      "constant": true,
      "inputs": [
        {
          "internalType": "uint256",
          "name": "",
          "type": "uint256"
        }
      ],
      "name": "accessPolicies",
      "outputs": [
        {
          "internalType": "uint256",
          "name": "accessPolicyID",
          "type": "uint256"
        },
        {
          "internalType": "uint256",
          "name": "patientID",
          "type": "uint256"
        },
        {
          "internalType": "uint256",
          "name": "stakeholderID",
          "type": "uint256"
        },
        {
          "internalType": "string",
          "name": "permissionLevel",
          "type": "string"
        }
      ],
      "payable": false,
      "stateMutability": "view",
      "type": "function"
    },
    {
      "constant": false,
      "inputs": [
        {
          "internalType": "string",
          "name": "batchID",
          "type": "string"
        },
        {
          "internalType": "string",
          "name": "productSpecID",
          "type": "string"
        },
        {
          "internalType": "uint256",
          "name": "manufactureDate",
          "type": "uint256"
        },
        {
          "internalType": "string",
          "name": "lotNumber",
          "type": "string"
        },
        {
          "internalType": "bytes32",
          "name": "ipfsHash",
          "type": "bytes32"
        },
        {
          "internalType": "address",
          "name": "manufacturer",
          "type": "address"
        }
      ],
      "name": "addBatch",
      "outputs": [],
      "payable": false,
      "stateMutability": "nonpayable",
      "type": "function"
    },
    {
      "constant": false,
      "inputs": [
        {
          "internalType": "string",
          "name": "productSpecID",
          "type": "string"
        },
        {
          "internalType": "string",
          "name": "productName",
          "type": "string"
        },
        {
          "internalType": "string",
          "name": "dosageForm",
          "type": "string"
        },
        {
          "internalType": "uint256",
          "name": "strength",
          "type": "uint256"
        }
      ],
      "name": "addProduct",
      "outputs": [],
      "payable": false,
      "stateMutability": "nonpayable",
      "type": "function"
    },
    {
      "constant": true,
      "inputs": [
        {
          "internalType": "string",
          "name": "",
          "type": "string"
        }
      ],
      "name": "batches",
      "outputs": [
        {
          "internalType": "bool",
          "name": "exists",
          "type": "bool"
        },
        {
          "internalType": "string",
          "name": "batchID",
          "type": "string"
        },
        {
          "internalType": "string",
          "name": "productSpecID",
          "type": "string"
        },
        {
          "internalType": "uint256",
          "name": "manufactureDate",
          "type": "uint256"
        },
        {
          "internalType": "string",
          "name": "lotNumber",
          "type": "string"
        },
        {
          "internalType": "bytes32",
          "name": "ipfsHash",
          "type": "bytes32"
        },
        {
          "internalType": "address",
          "name": "manufacturer",
          "type": "address"
        }
      ],
      "payable": false,
      "stateMutability": "view",
      "type": "function"
    },
    {
      "constant": true,
      "inputs": [
        {
          "internalType": "uint256",
          "name": "",
          "type": "uint256"
        }
      ],
      "name": "certificates",
      "outputs": [
        {
          "internalType": "uint256",
          "name": "certificateID",
          "type": "uint256"
        },
        {
          "internalType": "uint256",
          "name": "stakeholderID",
          "type": "uint256"
        },
        {
          "internalType": "string",
          "name": "issuedBy",
          "type": "string"
        },
        {
          "internalType": "uint256",
          "name": "validUntil",
          "type": "uint256"
        }
      ],
      "payable": false,
      "stateMutability": "view",
      "type": "function"
    },
    {
      "constant": false,
      "inputs": [
        {
          "internalType": "string",
          "name": "medicationInstanceID",
          "type": "string"
        },
        {
          "internalType": "string",
          "name": "batchID",
          "type": "string"
        },
        {
          "internalType": "address",
          "name": "patient",
          "type": "address"
        },
        {
          "internalType": "uint256",
          "name": "expiryDate",
          "type": "uint256"
        }
      ],
      "name": "dispenseMedication",
      "outputs": [],
      "payable": false,
      "stateMutability": "nonpayable",
      "type": "function"
    },
    {
      "constant": true,
      "inputs": [
        {
          "internalType": "address",
          "name": "",
          "type": "address"
        }
      ],
      "name": "healthRecords",
      "outputs": [
        {
          "internalType": "string",
          "name": "data",
          "type": "string"
        },
        {
          "internalType": "address",
          "name": "patientPublicKey",
          "type": "address"
        },
        {
          "internalType": "address",
          "name": "doctorPublicKey",
          "type": "address"
        },
        {
          "internalType": "bool",
          "name": "encrypted",
          "type": "bool"
        }
      ],
      "payable": false,
      "stateMutability": "view",
      "type": "function"
    },
    {
      "constant": true,
      "inputs": [
        {
          "internalType": "uint256",
          "name": "",
          "type": "uint256"
        }
      ],
      "name": "medicalRecords",
      "outputs": [
        {
          "internalType": "uint256",
          "name": "medicalRecordID",
          "type": "uint256"
        },
        {
          "internalType": "string",
          "name": "data",
          "type": "string"
        },
        {
          "internalType": "uint256",
          "name": "hash",
          "type": "uint256"
        }
      ],
      "payable": false,
      "stateMutability": "view",
      "type": "function"
    },
    {
      "constant": true,
      "inputs": [
        {
          "internalType": "string",
          "name": "",
          "type": "string"
        }
      ],
      "name": "medicationInstances",
      "outputs": [
        {
          "internalType": "bool",
          "name": "exists",
          "type": "bool"
        },
        {
          "internalType": "string",
          "name": "medicationInstanceID",
          "type": "string"
        },
        {
          "internalType": "string",
          "name": "batchID",
          "type": "string"
        },
        {
          "internalType": "address",
          "name": "patient",
          "type": "address"
        },
        {
          "internalType": "uint256",
          "name": "expiryDate",
          "type": "uint256"
        },
        {
          "internalType": "bool",
          "name": "dispensed",
          "type": "bool"
        }
      ],
      "payable": false,
      "stateMutability": "view",
      "type": "function"
    },
    {
      "constant": true,
      "inputs": [
        {
          "internalType": "address",
          "name": "",
          "type": "address"
        }
      ],
      "name": "patients",
      "outputs": [
        {
          "internalType": "uint256",
          "name": "patientID",
          "type": "uint256"
        },
        {
          "internalType": "string",
          "name": "name",
          "type": "string"
        },
        {
          "internalType": "uint256",
          "name": "dateOfBirth",
          "type": "uint256"
        },
        {
          "internalType": "uint256",
          "name": "medicalHistoryID",
          "type": "uint256"
        },
        {
          "internalType": "bool",
          "name": "exists",
          "type": "bool"
        }
      ],
      "payable": false,
      "stateMutability": "view",
      "type": "function"
    },
    {
      "constant": true,
      "inputs": [
        {
          "internalType": "string",
          "name": "",
          "type": "string"
        }
      ],
      "name": "products",
      "outputs": [
        {
          "internalType": "bool",
          "name": "exists",
          "type": "bool"
        },
        {
          "internalType": "string",
          "name": "productSpecID",
          "type": "string"
        },
        {
          "internalType": "string",
          "name": "productName",
          "type": "string"
        },
        {
          "internalType": "string",
          "name": "dosageForm",
          "type": "string"
        },
        {
          "internalType": "uint256",
          "name": "strength",
          "type": "uint256"
        }
      ],
      "payable": false,
      "stateMutability": "view",
      "type": "function"
    },
    {
      "constant": true,
      "inputs": [
        {
          "internalType": "address",
          "name": "",
          "type": "address"
        }
      ],
      "name": "stakeholders",
      "outputs": [
        {
          "internalType": "uint256",
          "name": "stakeholderID",
          "type": "uint256"
        },
        {
          "internalType": "string",
          "name": "name",
          "type": "string"
        },
        {
          "internalType": "string",
          "name": "stakeholderType",
          "type": "string"
        }
      ],
      "payable": false,
      "stateMutability": "view",
      "type": "function"
    },
    {
      "constant": false,
      "inputs": [
        {
          "internalType": "address",
          "name": "patient",
          "type": "address"
        },
        {
          "internalType": "string",
          "name": "medicationInstanceID",
          "type": "string"
        },
        {
          "internalType": "uint256",
          "name": "batchID",
          "type": "uint256"
        }
      ],
      "name": "updateHealthRecord",
      "outputs": [],
      "payable": false,
      "stateMutability": "nonpayable",
      "type": "function"
    },
    {
      "constant": false,
      "inputs": [
        {
          "internalType": "address",
          "name": "patient",
          "type": "address"
        },
        {
          "internalType": "uint256",
          "name": "batchID",
          "type": "uint256"
        },
        {
          "internalType": "string",
          "name": "batchInfo",
          "type": "string"
        }
      ],
      "name": "updateHealthRecordWithBatch",
      "outputs": [],
      "payable": false,
      "stateMutability": "nonpayable",
      "type": "function"
    },
    {
      "constant": true,
      "inputs": [
        {
          "internalType": "string",
          "name": "batchID",
          "type": "string"
        }
      ],
      "name": "getBatchInfo",
      "outputs": [
        {
          "components": [
            {
              "internalType": "bool",
              "name": "exists",
              "type": "bool"
            },
            {
              "internalType": "string",
              "name": "batchID",
              "type": "string"
            },
            {
              "internalType": "string",
              "name": "productSpecID",
              "type": "string"
            },
            {
              "internalType": "uint256",
              "name": "manufactureDate",
              "type": "uint256"
            },
            {
              "internalType": "string",
              "name": "lotNumber",
              "type": "string"
            },
            {
              "internalType": "bytes32",
              "name": "ipfsHash",
              "type": "bytes32"
            },
            {
              "internalType": "address",
              "name": "manufacturer",
              "type": "address"
            }
          ],
          "internalType": "struct SupplyChain.Batch",
          "name": "",
          "type": "tuple"
        }
      ],
      "payable": false,
      "stateMutability": "view",
      "type": "function"
    }
  ],
  "bytecode": "0x608060405234801561001057600080fd5b50611d97806100206000396000f3fe608060405234801561001057600080fd5b50600436106100f55760003560e01c80637564a13c11610097578063c07cfca911610066578063c07cfca91461024c578063c581b45f1461026e578063d1cfe0d914610281578063d54d5b92146102a4576100f5565b80637564a13c146101de5780637ef1446a146102005780638165fed514610226578063819418d814610239576100f5565b806311cf8d85116100d357806311cf8d85146101705780631d0b9fc014610193578063434e19cf146101a8578063663b3e22146101bb576100f5565b80630186a423146100fa5780630869cfbc146101275780631072a0fa1461014b575b600080fd5b61010d6101083660046115f5565b6102c4565b60405161011e9594939291906119fe565b60405180910390f35b61013a610135366004611511565b6104a5565b60405161011e959493929190611bb4565b61015e6101593660046115f5565b610563565b60405161011e96959493929190611996565b61018361017e366004611511565b6106cd565b60405161011e9493929190611aed565b6101a66101a136600461173f565b610793565b005b6101a66101b6366004611629565b610897565b6101ce6101c936600461180a565b610a71565b60405161011e9493929190611bfd565b6101f16101ec36600461180a565b610b20565b60405161011e93929190611b85565b61021361020e3660046115f5565b610bcd565b60405161011e9796959493929190611a5f565b6101a66102343660046116b7565b610dc6565b6101a661024736600461159b565b610e84565b61025f61025a366004611511565b610ec1565b60405161011e93929190611b51565b6101a661027c366004611537565b610ffa565b61029461028f36600461180a565b611041565b60405161011e9493929190611c39565b6102b76102b23660046115f5565b611109565b60405161011e9190611b40565b805160208183018101805160008252928201938201939093209190925280546001808301805460408051600261010095841615959095026000190190921693909304601f810187900487028201870190935282815260ff909316949091908301828280156103735780601f1061034857610100808354040283529160200191610373565b820191906000526020600020905b81548152906001019060200180831161035657829003601f168201915b50505060028085018054604080516020601f60001961010060018716150201909416959095049283018590048502810185019091528181529596959450909250908301828280156104055780601f106103da57610100808354040283529160200191610405565b820191906000526020600020905b8154815290600101906020018083116103e857829003601f168201915b5050505060038301805460408051602060026001851615610100026000190190941693909304601f81018490048402820184019092528181529495949350908301828280156104955780601f1061046a57610100808354040283529160200191610495565b820191906000526020600020905b81548152906001019060200180831161047857829003601f168201915b5050505050908060040154905085565b6003602090815260009182526040918290208054600180830180548651600293821615610100026000190190911692909204601f8101869004860283018601909652858252919492939092908301828280156105425780601f1061051757610100808354040283529160200191610542565b820191906000526020600020905b81548152906001019060200180831161052557829003601f168201915b50505050600283015460038401546004909401549293909290915060ff1685565b80516020818301810180516002808352938301948301949094209390528254600180850180546040805161010094831615949094026000190190911695909504601f810185900485028301850190955284825260ff909216949390928301828280156106105780601f106105e557610100808354040283529160200191610610565b820191906000526020600020905b8154815290600101906020018083116105f357829003601f168201915b50505060028085018054604080516020601f60001961010060018716150201909416959095049283018590048502810185019091528181529596959450909250908301828280156106a25780601f10610677576101008083540402835291602001916106a2565b820191906000526020600020905b81548152906001019060200180831161068557829003601f168201915b505050506003830154600484015460059094015492936001600160a01b039091169290915060ff1686565b60086020908152600091825260409182902080548351601f600260001961010060018616150201909316929092049182018490048402810184019094528084529092918391908301828280156107645780601f1061073957610100808354040283529160200191610764565b820191906000526020600020905b81548152906001019060200180831161074757829003601f168201915b50505050600183015460029093015491926001600160a01b03908116929081169150600160a01b900460ff1684565b6040518060e00160405280600115158152602001878152602001868152602001858152602001848152602001838152602001826001600160a01b03168152506001876040516107e29190611983565b908152604051602091819003820190208251815460ff1916901515178155828201518051919261081a92600185019290910190611336565b5060408201518051610836916002840191602090910190611336565b50606082015160038201556080820151805161085c916004840191602090910190611336565b5060a0820151600582015560c090910151600690910180546001600160a01b0319166001600160a01b03909216919091179055505050505050565b6001836040516108a79190611983565b9081526040519081900360200190205460ff166108df5760405162461bcd60e51b81526004016108d690611b30565b60405180910390fd5b604080516001808252818301909252606091602080830190803883390190505090506001846040516109119190611983565b9081526040519081900360200190206006015481516001600160a01b0390911690829060009061093d57fe5b60200260200101906001600160a01b031690816001600160a01b0316815250506040518060e00160405280600115158152602001868152602001858152602001846001600160a01b03168152602001838152602001600115158152602001828152506002866040516109af9190611983565b908152604051602091819003820190208251815460ff191690151517815582820151805191926109e792600185019290910190611336565b5060408201518051610a03916002840191602090910190611336565b5060608201516003820180546001600160a01b0319166001600160a01b039092169190911790556080820151600482015560a082015160058201805460ff191691151591909117905560c08201518051610a679160068401916020909101906113b4565b5050505050505050565b60076020908152600091825260409182902080546001808301546002808501805488519481161561010002600019011691909104601f810187900487028401870190975286835292959094919291830182828015610b105780601f10610ae557610100808354040283529160200191610b10565b820191906000526020600020905b815481529060010190602001808311610af357829003601f168201915b5050505050908060030154905084565b6004602090815260009182526040918290208054600180830180548651600293821615610100026000190190911692909204601f810186900486028301860190965285825291949293909290830182828015610bbd5780601f10610b9257610100808354040283529160200191610bbd565b820191906000526020600020905b815481529060010190602001808311610ba057829003601f168201915b5050505050908060020154905083565b8051808201602090810180516001808352938301948301949094209390528254838301805460408051601f600260001998851615610100029890980190931696909604918201859004850286018501905280855260ff909216949392909190830182828015610c7d5780601f10610c5257610100808354040283529160200191610c7d565b820191906000526020600020905b815481529060010190602001808311610c6057829003601f168201915b50505060028085018054604080516020601f6000196101006001871615020190941695909504928301859004850281018501909152818152959695945090925090830182828015610d0f5780601f10610ce457610100808354040283529160200191610d0f565b820191906000526020600020905b815481529060010190602001808311610cf257829003601f168201915b50505050600383015460048401805460408051602060026001851615610100026000190190941693909304601f81018490048402820184019092528181529596939593945090830182828015610da65780601f10610d7b57610100808354040283529160200191610da6565b820191906000526020600020905b815481529060010190602001808311610d8957829003601f168201915b5050505060058301546006909301549192916001600160a01b0316905087565b6040518060a0016040528060011515815260200185815260200184815260200183815260200182815250600085604051610e009190611983565b908152604051602091819003820190208251815460ff19169015151781558282015180519192610e3892600185019290910190611336565b5060408201518051610e54916002840191602090910190611336565b5060608201518051610e70916003840191602090910190611336565b506080820151816004015590505050505050565b817fa8294b517cfb49e3b0c07d91085292fc5e0c8e2ff62edb665056ee341f5ff34582604051610eb49190611adc565b60405180910390a2505050565b6005602090815260009182526040918290208054600180830180548651600293821615610100026000190190911692909204601f810186900486028301860190965285825291949293909290830182828015610f5e5780601f10610f3357610100808354040283529160200191610f5e565b820191906000526020600020905b815481529060010190602001808311610f4157829003601f168201915b50505060028085018054604080516020601f6000196101006001871615020190941695909504928301859004850281018501909152818152959695945090925090830182828015610ff05780601f10610fc557610100808354040283529160200191610ff0565b820191906000526020600020905b815481529060010190602001808311610fd357829003601f168201915b5050505050905083565b80836001600160a01b03167f5c2b5d6645d201d29b6da912156d4b230ad8c622967aa75bd74d5e86308236d8846040516110349190611adc565b60405180910390a3505050565b6006602052806000526040600020600091509050806000015490806001015490806002015490806003018054600181600116156101000203166002900480601f0160208091040260200160405190810160405280929190818152602001828054600181600116156101000203166002900480156110ff5780601f106110d4576101008083540402835291602001916110ff565b820191906000526020600020905b8154815290600101906020018083116110e257829003601f168201915b5050505050905084565b611111611415565b611119611415565b6001836040516111299190611983565b908152604080516020928190038301812060e082018352805460ff1615158252600180820180548551600261010094831615949094026000190190911692909204601f8101879004870283018701909552848252929491938286019391928301828280156111d85780601f106111ad576101008083540402835291602001916111d8565b820191906000526020600020905b8154815290600101906020018083116111bb57829003601f168201915b5050509183525050600282810180546040805160206001841615610100026000190190931694909404601f8101839004830285018301909152808452938101939083018282801561126a5780601f1061123f5761010080835404028352916020019161126a565b820191906000526020600020905b81548152906001019060200180831161124d57829003601f168201915b5050509183525050600382015460208083019190915260048301805460408051601f600260001961010060018716150201909416939093049283018590048502810185018252828152940193928301828280156113085780601f106112dd57610100808354040283529160200191611308565b820191906000526020600020905b8154815290600101906020018083116112eb57829003601f168201915b5050509183525050600582015460208201526006909101546001600160a01b03166040909101529392505050565b828054600181600116156101000203166002900490600052602060002090601f016020900481019282601f1061137757805160ff19168380011785556113a4565b828001600101855582156113a4579182015b828111156113a4578251825591602001919060010190611389565b506113b0929150611460565b5090565b828054828255906000526020600020908101928215611409579160200282015b8281111561140957825182546001600160a01b0319166001600160a01b039091161782556020909201916001909101906113d4565b506113b092915061147d565b6040518060e00160405280600015158152602001606081526020016060815260200160008152602001606081526020016000801916815260200160006001600160a01b031681525090565b61147a91905b808211156113b05760008155600101611466565b90565b61147a91905b808211156113b05780546001600160a01b0319168155600101611483565b80356114ac81611d34565b92915050565b80356114ac81611d4b565b600082601f8301126114ce57600080fd5b81356114e16114dc82611c99565b611c73565b915080825260208301602083018583830111156114fd57600080fd5b611508838284611cee565b50505092915050565b60006020828403121561152357600080fd5b600061152f84846114a1565b949350505050565b60008060006060848603121561154c57600080fd5b600061155886866114a1565b93505060208401356001600160401b0381111561157457600080fd5b611580868287016114bd565b9250506040611591868287016114b2565b9150509250925092565b6000806000606084860312156115b057600080fd5b60006115bc86866114a1565b93505060206115cd868287016114b2565b92505060408401356001600160401b038111156115e957600080fd5b611591868287016114bd565b60006020828403121561160757600080fd5b81356001600160401b0381111561161d57600080fd5b61152f848285016114bd565b6000806000806080858703121561163f57600080fd5b84356001600160401b0381111561165557600080fd5b611661878288016114bd565b94505060208501356001600160401b0381111561167d57600080fd5b611689878288016114bd565b935050604061169a878288016114a1565b92505060606116ab878288016114b2565b91505092959194509250565b600080600080608085870312156116cd57600080fd5b84356001600160401b038111156116e357600080fd5b6116ef878288016114bd565b94505060208501356001600160401b0381111561170b57600080fd5b611717878288016114bd565b93505060408501356001600160401b0381111561173357600080fd5b61169a878288016114bd565b60008060008060008060c0878903121561175857600080fd5b86356001600160401b0381111561176e57600080fd5b61177a89828a016114bd565b96505060208701356001600160401b0381111561179657600080fd5b6117a289828a016114bd565b95505060406117b389828a016114b2565b94505060608701356001600160401b038111156117cf57600080fd5b6117db89828a016114bd565b93505060806117ec89828a016114b2565b92505060a06117fd89828a016114a1565b9150509295509295509295565b60006020828403121561181c57600080fd5b600061152f84846114b2565b61183181611cd2565b82525050565b61183181611cdd565b6118318161147a565b600061185482611cc0565b61185e8185611cc4565b935061186e818560208601611cfa565b61187781611d2a565b9093019392505050565b600061188c82611cc0565b6118968185611ccd565b93506118a6818560208601611cfa565b9290920192915050565b60006118bd601483611cc4565b7310985d18da08191bd95cc81b9bdd08195e1a5cdd60621b815260200192915050565b805160009060e08401906118f48582611837565b506020830151848203602086015261190c8282611849565b915050604083015184820360408601526119268282611849565b915050606083015161193b6060860182611840565b50608083015184820360808601526119538282611849565b91505060a083015161196860a0860182611840565b5060c083015161197b60c0860182611828565b509392505050565b600061198f8284611881565b9392505050565b60c081016119a48289611837565b81810360208301526119b68188611849565b905081810360408301526119ca8187611849565b90506119d96060830186611828565b6119e66080830185611840565b6119f360a0830184611837565b979650505050505050565b60a08101611a0c8288611837565b8181036020830152611a1e8187611849565b90508181036040830152611a328186611849565b90508181036060830152611a468185611849565b9050611a556080830184611840565b9695505050505050565b60e08101611a6d828a611837565b8181036020830152611a7f8189611849565b90508181036040830152611a938188611849565b9050611aa26060830187611840565b8181036080830152611ab48186611849565b9050611ac360a0830185611840565b611ad060c0830184611828565b98975050505050505050565b6020808252810161198f8184611849565b60808082528101611afe8187611849565b9050611b0d6020830186611828565b611b1a6040830185611828565b611b276060830184611837565b95945050505050565b602080825281016114ac816118b0565b6020808252810161198f81846118e0565b60608101611b5f8286611840565b8181036020830152611b718185611849565b90508181036040830152611b278184611849565b60608101611b938286611840565b8181036020830152611ba58185611849565b905061152f6040830184611840565b60a08101611bc28288611840565b8181036020830152611bd48187611849565b9050611be36040830186611840565b611bf06060830185611840565b611a556080830184611837565b60808101611c0b8287611840565b611c186020830186611840565b8181036040830152611c2a8185611849565b9050611b276060830184611840565b60808101611c478287611840565b611c546020830186611840565b611c616040830185611840565b8181036060830152611a558184611849565b6040518181016001600160401b0381118282101715611c9157600080fd5b604052919050565b60006001600160401b03821115611caf57600080fd5b506020601f91909101601f19160190565b5190565b90815260200190565b919050565b60006114ac82611ce2565b151590565b6001600160a01b031690565b82818337506000910152565b60005b83811015611d15578181015183820152602001611cfd565b83811115611d24576000848401525b50505050565b601f01601f191690565b611d3d81611cd2565b8114611d4857600080fd5b50565b611d3d8161147a56fea365627a7a7231582021523238ef71cc01dc81bb566afb79d3f3f30465304de5ef6448337f9c17fcab6c6578706572696d656e74616cf564736f6c63430005100040",
  "source": "// SPDX-License-Identifier: MIT \npragma solidity >=0.4.22 <0.9.0;\npragma experimental ABIEncoderV2;\n\nimport \"./SupplyChain.sol\";\n\ncontract HealthRecordSystem is SupplyChain {\n    struct HealthRecord {\n        string data;\n        address patientPublicKey;\n        address doctorPublicKey;\n        bool encrypted;\n    }\n\n    struct Patient {\n        uint256 patientID;\n        string name;\n        uint256 dateOfBirth;\n        uint256 medicalHistoryID;\n        bool exists; \n        uint[] medicationHistory; // Add medication history\n    }\n\n    struct MedicalRecord {\n        uint256 medicalRecordID;\n        string data;\n        uint256 hash; // Hash references Patient.medicalHistoryID\n    }\n\n    struct Stakeholder {\n        uint256 stakeholderID;\n        string name;\n        string stakeholderType; // Doctor, Lab, Researcher, etc.\n    }\n\n    struct AccessPolicy {\n        uint256 accessPolicyID;\n        uint256 patientID;\n        uint256 stakeholderID;\n        string permissionLevel; // Read-only, Read-Write, Delete\n    }\n\n    struct Certificate {\n        uint256 certificateID;\n        uint256 stakeholderID;\n        string issuedBy; // Certificate Authority\n        uint256 validUntil;\n    }\n\n    // Mappings\n    mapping(address => Patient) public patients;\n    mapping(uint256 => MedicalRecord) public medicalRecords;\n    mapping(address => Stakeholder) public stakeholders;\n    mapping(uint256 => AccessPolicy) public accessPolicies;\n    mapping(uint256 => Certificate) public certificates;\n    mapping(address => HealthRecord) public healthRecords;\n\n\n    // Events\n    event HealthRecordUpdated(address indexed patient, string medicationInstanceID, uint256 indexed batchID);\n    event HealthRecordUpdatedWithBatch(uint256 indexed batchID, string batchInfo);\n\n    // Update health record with medication dispensation information\n    function updateHealthRecord(address patient, string memory medicationInstanceID, uint256 batchID) public {\n        // Update health record logic\n        // Here you can add code to update the health record with medication instance ID and batch ID\n        // For demonstration, we'll simply emit an event\n        emit HealthRecordUpdated(patient, medicationInstanceID, batchID);\n    }\n\n    // Update health record with batch information\n    function updateHealthRecordWithBatch(address patient, uint256 batchID, string memory batchInfo) public {\n        // Update health record with batch information logic\n        // Here you can add code to update the health record with batch information\n        // For demonstration, we'll simply emit an event\n        emit HealthRecordUpdatedWithBatch(batchID, batchInfo);\n    }\n\n    // Get batch information\n    function getBatchInfo(string memory batchID) public view returns (Batch memory) {\n        // Get batch information logic\n        // Here you can add code to retrieve batch information based on the batch ID\n        // For demonstration, we'll return a dummy batch information\n        Batch memory _batch = batches[batchID];\n        return _batch;\n    }\n}\n",
  "sourcePath": "/Users/abhishek/Documents/College/Projects/Bridge/contracts/HealthRecordSystem.sol",
  "compiler": {
    "name": "solc",
    "version": "0.5.16+commit.9c3226ce.Emscripten.clang"
  },
  "schemaVersion": "3.4.16",
  "updatedAt": "2024-04-28T21:17:50.221Z",
  "devdoc": {
    "methods": {}
  },
  "userdoc": {
    "methods": {}
  }
}